{
    "_format": "hh-sol-artifact-1",
    "contractName": "SmartPayment",
    "sourceName": "contracts/SmartPayment.sol",
    "abi": [
        {
            "inputs": [
                {
                    "internalType": "address",
                    "name": "_contratado",
                    "type": "address"
                },
                {
                    "internalType": "uint256",
                    "name": "_dataInicio",
                    "type": "uint256"
                },
                {
                    "internalType": "uint256",
                    "name": "_dataFim",
                    "type": "uint256"
                },
                {
                    "internalType": "uint256",
                    "name": "_valorPorPF",
                    "type": "uint256"
                }
            ],
            "stateMutability": "nonpayable",
            "type": "constructor"
        },
        {
            "anonymous": false,
            "inputs": [
                {
                    "indexed": true,
                    "internalType": "address",
                    "name": "assinante",
                    "type": "address"
                }
            ],
            "name": "ContratoAssinado",
            "type": "event"
        },
        {
            "anonymous": false,
            "inputs": [
                {
                    "indexed": false,
                    "internalType": "uint256",
                    "name": "dataAtivacao",
                    "type": "uint256"
                }
            ],
            "name": "ContratoAtivado",
            "type": "event"
        },
        {
            "anonymous": false,
            "inputs": [
                {
                    "indexed": true,
                    "internalType": "address",
                    "name": "contratante",
                    "type": "address"
                },
                {
                    "indexed": true,
                    "internalType": "address",
                    "name": "contratado",
                    "type": "address"
                },
                {
                    "indexed": false,
                    "internalType": "uint256",
                    "name": "dataInicio",
                    "type": "uint256"
                },
                {
                    "indexed": false,
                    "internalType": "uint256",
                    "name": "dataFim",
                    "type": "uint256"
                },
                {
                    "indexed": false,
                    "internalType": "uint256",
                    "name": "valorPorPF",
                    "type": "uint256"
                }
            ],
            "name": "ContratoCriado",
            "type": "event"
        },
        {
            "inputs": [],
            "name": "ativarContrato",
            "outputs": [],
            "stateMutability": "nonpayable",
            "type": "function"
        },
        {
            "inputs": [],
            "name": "contratado",
            "outputs": [
                {
                    "internalType": "address",
                    "name": "",
                    "type": "address"
                }
            ],
            "stateMutability": "view",
            "type": "function"
        },
        {
            "inputs": [],
            "name": "contratadoAssinou",
            "outputs": [
                {
                    "internalType": "bool",
                    "name": "",
                    "type": "bool"
                }
            ],
            "stateMutability": "view",
            "type": "function"
        },
        {
            "inputs": [],
            "name": "contratante",
            "outputs": [
                {
                    "internalType": "address",
                    "name": "",
                    "type": "address"
                }
            ],
            "stateMutability": "view",
            "type": "function"
        },
        {
            "inputs": [],
            "name": "contratanteAssinou",
            "outputs": [
                {
                    "internalType": "bool",
                    "name": "",
                    "type": "bool"
                }
            ],
            "stateMutability": "view",
            "type": "function"
        },
        {
            "inputs": [],
            "name": "dataFim",
            "outputs": [
                {
                    "internalType": "uint256",
                    "name": "",
                    "type": "uint256"
                }
            ],
            "stateMutability": "view",
            "type": "function"
        },
        {
            "inputs": [],
            "name": "dataInicio",
            "outputs": [
                {
                    "internalType": "uint256",
                    "name": "",
                    "type": "uint256"
                }
            ],
            "stateMutability": "view",
            "type": "function"
        },
        {
            "inputs": [],
            "name": "finalizarContrato",
            "outputs": [],
            "stateMutability": "nonpayable",
            "type": "function"
        },
        {
            "inputs": [],
            "name": "statusContrato",
            "outputs": [
                {
                    "internalType": "enum SmartPayment.StatusContrato",
                    "name": "",
                    "type": "uint8"
                }
            ],
            "stateMutability": "view",
            "type": "function"
        },
        {
            "inputs": [],
            "name": "valorPorPF",
            "outputs": [
                {
                    "internalType": "uint256",
                    "name": "",
                    "type": "uint256"
                }
            ],
            "stateMutability": "view",
            "type": "function"
        }
    ],
    "bytecode": "0x608060405234801561001057600080fd5b50604051610d74380380610d7483398181016040528101906100329190610246565b336000806101000a81548173ffffffffffffffffffffffffffffffffffffffff021916908373ffffffffffffffffffffffffffffffffffffffff16021790555083600160006101000a81548173ffffffffffffffffffffffffffffffffffffffff021916908373ffffffffffffffffffffffffffffffffffffffff1602179055508260028190555081600381905550806004819055506000600560026101000a81548160ff021916908360028111156100ee576100ed6102ad565b5b0217905550600160009054906101000a900473ffffffffffffffffffffffffffffffffffffffff1673ffffffffffffffffffffffffffffffffffffffff1660008054906101000a900473ffffffffffffffffffffffffffffffffffffffff1673ffffffffffffffffffffffffffffffffffffffff167feb8698d541032b75c4568cab4b26ce119426fc132122218946bd7f5e2961efa260025460035460045460405161019c939291906102eb565b60405180910390a350505050610322565b600080fd5b600073ffffffffffffffffffffffffffffffffffffffff82169050919050565b60006101dd826101b2565b9050919050565b6101ed816101d2565b81146101f857600080fd5b50565b60008151905061020a816101e4565b92915050565b6000819050919050565b61022381610210565b811461022e57600080fd5b50565b6000815190506102408161021a565b92915050565b600080600080608085870312156102605761025f6101ad565b5b600061026e878288016101fb565b945050602061027f87828801610231565b935050604061029087828801610231565b92505060606102a187828801610231565b91505092959194509250565b7f4e487b7100000000000000000000000000000000000000000000000000000000600052602160045260246000fd5b6102e581610210565b82525050565b600060608201905061030060008301866102dc565b61030d60208301856102dc565b61031a60408301846102dc565b949350505050565b610a43806103316000396000f3fe608060405234801561001057600080fd5b506004361061009e5760003560e01c806381330b1c1161006657806381330b1c14610125578063bc8c633d14610143578063c7450f6014610161578063cfe70f511461016b578063edd2366a146101895761009e565b806320c3c3cd146100a357806327c0a1f8146100c157806348720202146100cb57806361d0372c146100e95780637ce9571b14610107575b600080fd5b6100ab6101a7565b6040516100b89190610553565b60405180910390f35b6100c96101ba565b005b6100d3610340565b6040516100e09190610587565b60405180910390f35b6100f1610346565b6040516100fe9190610619565b60405180910390f35b61010f610359565b60405161011c9190610675565b60405180910390f35b61012d61037d565b60405161013a9190610587565b60405180910390f35b61014b610383565b6040516101589190610675565b60405180910390f35b6101696103a9565b005b61017361051f565b6040516101809190610587565b60405180910390f35b610191610525565b60405161019e9190610553565b60405180910390f35b600560019054906101000a900460ff1681565b600560009054906101000a900460ff1680156101e25750600560019054906101000a900460ff165b610221576040517f08c379a000000000000000000000000000000000000000000000000000000000815260040161021890610713565b60405180910390fd5b600254421015610266576040517f08c379a000000000000000000000000000000000000000000000000000000000815260040161025d906107a5565b60405180910390fd5b6000600281111561027a576102796105a2565b5b600560029054906101000a900460ff16600281111561029c5761029b6105a2565b5b146102dc576040517f08c379a00000000000000000000000000000000000000000000000000000000081526004016102d390610837565b60405180910390fd5b6001600560026101000a81548160ff02191690836002811115610302576103016105a2565b5b02179055507f43fe719179f298bf729358862c1d97d192c31d2f6cc14c90fd04d44736908363426040516103369190610587565b60405180910390a1565b60025481565b600560029054906101000a900460ff1681565b60008054906101000a900473ffffffffffffffffffffffffffffffffffffffff1681565b60045481565b600160009054906101000a900473ffffffffffffffffffffffffffffffffffffffff1681565b60008054906101000a900473ffffffffffffffffffffffffffffffffffffffff1673ffffffffffffffffffffffffffffffffffffffff163373ffffffffffffffffffffffffffffffffffffffff1614610437576040517f08c379a000000000000000000000000000000000000000000000000000000000815260040161042e906108c9565b60405180910390fd5b60035442101561047c576040517f08c379a00000000000000000000000000000000000000000000000000000000081526004016104739061095b565b60405180910390fd5b600160028111156104905761048f6105a2565b5b600560029054906101000a900460ff1660028111156104b2576104b16105a2565b5b146104f2576040517f08c379a00000000000000000000000000000000000000000000000000000000081526004016104e9906109ed565b60405180910390fd5b6002600560026101000a81548160ff02191690836002811115610518576105176105a2565b5b0217905550565b60035481565b600560009054906101000a900460ff1681565b60008115159050919050565b61054d81610538565b82525050565b60006020820190506105686000830184610544565b92915050565b6000819050919050565b6105818161056e565b82525050565b600060208201905061059c6000830184610578565b92915050565b7f4e487b7100000000000000000000000000000000000000000000000000000000600052602160045260246000fd5b600381106105e2576105e16105a2565b5b50565b60008190506105f3826105d1565b919050565b6000610603826105e5565b9050919050565b610613816105f8565b82525050565b600060208201905061062e600083018461060a565b92915050565b600073ffffffffffffffffffffffffffffffffffffffff82169050919050565b600061065f82610634565b9050919050565b61066f81610654565b82525050565b600060208201905061068a6000830184610666565b92915050565b600082825260208201905092915050565b7f416d6261732061732070617274657320646576656d20617373696e6172206f2060008201527f636f6e747261746f2e0000000000000000000000000000000000000000000000602082015250565b60006106fd602983610690565b9150610708826106a1565b604082019050919050565b6000602082019050818103600083015261072c816106f0565b9050919050565b7f436f6e747261746f206e616f20706f646520736572206174697661646f20616e60008201527f746573206461206461746120646520696e6963696f2e00000000000000000000602082015250565b600061078f603683610690565b915061079a82610733565b604082019050919050565b600060208201905081810360008301526107be81610782565b9050919050565b7f436f6e747261746f206a61206573746120617469766f206f7520636f6e636c7560008201527f69646f2e00000000000000000000000000000000000000000000000000000000602082015250565b6000610821602483610690565b915061082c826107c5565b604082019050919050565b6000602082019050818103600083015261085081610814565b9050919050565b7f4170656e6173206f20636f6e74726174616e746520706f6465207265616c697a60008201527f61722065737361206163616f2e00000000000000000000000000000000000000602082015250565b60006108b3602d83610690565b91506108be82610857565b604082019050919050565b600060208201905081810360008301526108e2816108a6565b9050919050565b7f436f6e747261746f2061696e6461206e616f206174696e67697520612064617460008201527f612066696e616c2e000000000000000000000000000000000000000000000000602082015250565b6000610945602883610690565b9150610950826108e9565b604082019050919050565b6000602082019050818103600083015261097481610938565b9050919050565b7f436f6e747261746f206465766520657374617220617469766f2070617261207360008201527f65722066696e616c697a61646f2e000000000000000000000000000000000000602082015250565b60006109d7602e83610690565b91506109e28261097b565b604082019050919050565b60006020820190508181036000830152610a06816109ca565b905091905056fea26469706673582212201f4d1216c0b0f217e61c019418fa1593946efac269a574cadf7452a6fe60c0ce64736f6c634300081b0033",
    "linkReferences": {},
    "deployedLinkReferences": {}
}